:020000040800F2
:10000000A0110020C10100081D310008ED2A0008E0
:10001000B92F0008F7080008D53B000800000000D1
:100020000000000000000000000000009F330008F6
:10003000290A00080000000023320008813400086B
:10004000DB010008DB010008DB010008DB01000820
:10005000DB010008DB010008DB010008DB01000810
:10006000DB010008DB010008DB010008DB01000800
:10007000DB010008DB010008DB010008DB010008F0
:10008000DB010008DB010008DB01000805090008AE
:10009000F9080008DB010008DB010008DB010008AB
:1000A000DB010008DB010008DB010008DB010008C0
:1000B000DB010008DB010008DB010008DB010008B0
:1000C000DB010008DB010008DB010008DB010008A0
:1000D000DB0100085D3B0008DB010008DB010008D4
:1000E0002B0A0008DB010008DB010008DB01000827
:1000F000DB010008DB010008DB010008DB01000870
:10010000DB010008DB010008DB010008DB0100085F
:10011000DB010008DB01000885350008DB01000871
:10012000DB010008610900086D090008DB01000817
:10013000DB010008DB010008DB010008DB0100082F
:10014000DB010008DB010008DB010008DB0100081F
:10015000DB01000879090008DB010008753B000895
:10016000DB010008DB010008DB010008DB010008FF
:10017000DB010008DB010008DB01000800000000D3
:10018000DB010008DB010008DB010008DB010008DF
:10019000DB010008DB010008DB010008DB010008CF
:1001A0000000000000000000DB010008DFF80CD0B8
:1001B00000F064FB00480047BD510008A01100207A
:1001C0000648804706480047FEE7FEE7FEE7FEE7F1
:1001D000FEE7FEE7FEE7FEE7FEE7FEE73135000853
:1001E000AD0100082DE9F05F0546002092469B46D0
:1001F00088460646814640241BE02846414647463D
:10020000224600F034FA53465A46C01A914110D3A0
:1002100011461846224600F01BFA2D1A67EB01081A
:100220004F4622460120002100F012FA17EB000988
:100230004E41201EA4F10104DFDC484631462A4627
:100240004346BDE8F09F40EA01039B0703D009E065
:1002500008C9121F08C0042AFAD203E011F8013BB2
:1002600000F8013B521EF9D27047D2B201E000F80B
:10027000012B491EFBD270470022F6E710B513464A
:100280000A4604461946FFF7F0FF204610BD2DE947
:10029000FE4F804681EA0300C00F0C46009021F01B
:1002A000004123F00045B8EB0200A94105D24046C9
:1002B000214690461C460B46024623F00040104360
:1002C00047D0270DC7F30A00C3F30A510290401A22
:1002D000019040286BDAC3F3130040F4801B0098B0
:1002E000924620B10023D2EB030A63EB0B0B01987B
:1002F0005946C0F14002504600F0AAF906460D46A4
:1003000050465946019A00F0C2F910EB08006141CD
:10031000002487EA115284EAE7731A4340D0009A16
:1003200062B3019A012A4FEA075215DC001B61EB08
:1003300002014FF0004202EA0752CDE90042001CE0
:1003400041F5801132462B4600F0F9F903B0BDE8C3
:10035000F08F40462146F9E7001B61EB0201001CCB
:1003600041F5801300185B412018A2F5001747EBF8
:10037000030140EAD570B6196D4111E06D084FEAEE
:10038000360645EAC0754FEA0752001B61EB0201D1
:10039000001C41F5801149084FEA30000019514115
:1003A00032462B4603B0BDE8F04F00F0B9B90098D3
:1003B000012240000023D0EB020263EBE0730098BF
:1003C00021464FEAE074B8EB000061EB0401E9E775
:1003D00083F000435BE781F0004158E72DE9FE4FD1
:1003E00081EA030404F0004421F0004100944FF03E
:1003F000000B23F0004350EA01045ED052EA0304EC
:100400005BD0C3F30A54C1F30A552C44A4F2F3346D
:100410000194A0FB0254C1F3130141F48011C3F312
:10042000130343F4801301FB024400FB034E840AD0
:10043000970A44EA815447EA8357A4FB0768029568
:100440008D0A05FB07854FEA932C04FB0C54270506
:10045000029D4FEA065847EA1637B5EB08056EEBE2
:10046000070C870E920E47EA811742EA8312A7FB18
:100470000201B6EB0B0164EB00042B0D43EA0C33D5
:100480005E1844EB1C50DA465146E7FB0201C5F307
:1004900013044FEA0B3343EA14534FEA0432019C2E
:1004A00043EA0603A4F10C040294009CCDE900B4D5
:1004B00000F045F903B0BDE8F08F00200146F9E7F0
:1004C0002DE9F04D81EA030404F0004B21F00045D2
:1004D00014464FF0000A23F0004150EA050220D0F4
:1004E00054EA01021DD0C5F30A570246C5F31303AF
:1004F000C1F31300C1F30A5640F4801543F480138E
:10050000A7EB0608101BD64608F2FD3873EB050072
:1005100002D308F1010801E092185B41B8F1000F25
:1005200003DA00200146BDE8F08D00204FF4801171
:10053000064684460EE0171B73EB050705D3121B16
:1005400063EB050306434CEA010C49084FEA30000F
:1005500092185B4150EA0107EDD152EA030012D034
:1005600082EA040083EA0501084305D0101BAB4171
:1005700006D20122002306E000224FF0004302E0F1
:100580006FF0010253101AEB06004CEB085110EB10
:100590000A0041EB0B01BDE8F04D00F0C1B80EB50B
:1005A000C10F80EAE0700844CA07002140F23343DB
:1005B0008DE80E000A460B4600F0C1F803B000BDFE
:1005C00000F0004230F000400AD0C10D01F560712A
:1005D000C0F3160042EA0151C208400711437047B8
:1005E000002001467047000030B5041E71F1000480
:1005F00004DB4FF00044404264EB0101141E73F130
:10060000000405DB1C464FF00043524263EB040339
:10061000994208BF904230BD01F0004330B421F050
:10062000004150EA010206D00A0DA2F56072C1F342
:100630001301002A02DC30BC00207047440F44EA5A
:10064000C104C100E01830BC00EBC25000F031B86A
:10065000202A04DB203A00FA02F100207047914082
:10066000C2F1200320FA03F3194390407047202A77
:1006700004DB203A21FA02F00021704721FA02F34C
:10068000D040C2F120029140084319467047202A09
:1006900006DBCB17203A41FA02F043EAE07306E0AA
:1006A00041FA02F3D040C2F12002914008431946BA
:1006B00070470029A8BF7047401C490008BF20F0C0
:1006C0000100704710B4B0FA80FC00FA0CF050EA58
:1006D000010404BF10BC704749B1CCF1200421FAD9
:1006E00004F411FA0CF118BF012121430843A3EBD4
:1006F0000C01CB1D4FEA00614FEA102042BF0020E1
:1007000010BC704700EBC35010440029A4BF10BCBC
:100710007047401C490008BF20F0010010BC704722
:1007200010B5141E73F1000408DA401C41F10001F9
:1007300092185B411A4301D120F0010010BD2DE950
:10074000F04D92469B4611B1B1FA81F202E0B0FA47
:1007500080F220329046FFF77BFF04460F4640EAC6
:100760000A0041EA0B0153465A46084313D011468A
:1007700053EA010019D0C8F140025046FFF777FF55
:1007800005460E46504659464246FFF761FF08436C
:1007900005D0012004E020463946BDE8F08D002058
:1007A000054346EAE0762C4337430A986305E40A9A
:1007B000A0EB08000022FD0A44EA47540A3002D5A3
:1007C00000200146E9E7010510196941DDE9084506
:1007D00000196941BDE8F04DA2E72DE9F04D002375
:1007E0001A461B1A8A4103DB00200146BDE8F08D42
:1007F000C1F30A52C1F3130141F480154FF0000B0D
:10080000D10702D100186D41521E0027044640F264
:10081000FF11384601EB620A3E4680460246002040
:100820004FF48011FFF723FFC2197141BB1846EB4B
:100830000100B4EB030C75EB000C04D3E41A65EB78
:10084000000517460E46241908F101006D41804647
:100850003428E3DDF91946EB0600091BA84103D251
:100860004FF0FF32134601E0002213461BEB070056
:1008700046EB0A51BDE8F04DFFF752BF064C074D5D
:1008800006E0E06840F0010394E807009847103460
:10089000AC42F6D3FFF78EFC18590008385900080F
:1008A00070B58C1810F8015B15F0070301D110F832
:1008B000013B2A1106D110F8012B03E010F8016B5F
:1008C00001F8016B5B1EF9D12B0705D40023521EE2
:1008D0000DD401F8013BFAE710F8013BCB1A921C4A
:1008E00003E013F8015B01F8015B521EF9D5A14248
:1008F000D8D3002070BDFEE7014800F010BB000017
:1009000020020020014800F00ABB00002002002065
:1009100010B5054B054A0021054800F083FA002870
:1009200000D0012010BD000004020020BC0B0020FC
:1009300020020020134610B5074A40F2FF1414604D
:1009400000249460C2E9034102460349034800F0D1
:1009500079F9002010BD0000D80B002020020020F3
:10096000014800F039BD000058040020014800F0A3
:1009700033BD000098030020014800F02DBD0000A9
:10098000F803002001681823CAB2103AB2FBF3F250
:10099000054B6FF30901032A9B5CC36500D9091D50
:1009A00081650846704700000458000810B50146EC
:1009B00000208B698A6A4FF0C07453B1B3F5005FB1
:1009C00015D072B1012A0CD0022A0AD0032A09D10B
:1009D00004E01AB1012A06D0022A03D1C96AC9016A
:1009E00000D5012010BDC96AA142FAD010BD002A6D
:1009F000F7D0012AF2D0022AF3D0032AF3D010BD97
:100A000030B50468256825F4802525600468636096
:100A10008368402B036803D099600068C26030BDD2
:100A20009A600068C16030BD704710B54FF48050C7
:100A300000F080FEBDE810404FF4005000F07ABE98
:100A400002684260098849BA016001684268891AEF
:100A50000161016911F5C85F06DA416A491C41620A
:100A6000016901F500510BE00169B1F5C85F06DDD0
:100A7000416A491E41620169A1F5005100E0016926
:100A8000016281684FF4B4725143CA1701EBD2413D
:100A90004913C1600168426A01EB4231816001681B
:100AA000C269DFED0C0A891A00EE101A416AB8EE2D
:100AB000C00A60EE200A4FF4B472514300EE101ADF
:100AC0009FED051AB8EEC00A00EE810A80ED0B0A10
:100AD000704700000000B4430000003900B58BB03F
:100AE0000020012103900490CDE9081001900290AC
:100AF0000090CDE9060105906946074800F006F927
:100B000010B101200BB000BD01229103034800F099
:100B100007FF0020F6E7000020020020001402403A
:100B20002DE9F041244C94ED010A88B3234D244E65
:100B300004F10807012835D022489FED231ADFED84
:100B4000231AD0ED0B0A04F1B00020EE811AC1EE99
:100B5000210A02F05DFB04F1B000D5ED060A90ED2C
:100B60000E0A543002F054FB94ED000AD6ED0B0A45
:100B7000B1EE400A1048083002F04AFBD5ED050AF4
:100B800097ED0E0ABDE8F0410B485C3002F040BB27
:100B90000F4880ED0E0A94ED000AA83880ED0E0A89
:100BA000BDE8F081D5ED060A094802F031FBD6ED2B
:100BB0000B0A94ED000ADDE70800002088050020FC
:100BC000880B0020540B002000008C4200005C4287
:100BD0000C010020098849BAC161C1698160C169FD
:100BE000416070474FF08040406A704720B9044828
:100BF000D0ED0B0A30EE800A024880ED000A704703
:100C0000880B0020080000200B4910B1022805D0F5
:100C10000DE0D1ED000A30EE200A08E0D1ED000A27
:100C2000064830EE200AD0ED0B0A30EE800A044868
:100C300080ED010A70470000B8010020540B00202D
:100C400008000020F0B590F82040012C07D090F863
:100C50002040022C03D0416A41F4802153E0046813
:100C6000A5686D0105D4A5682D0102D4A568ED0025
:100C700046D5A4680125C4F30164A5401D608D68B4
:100C80004FF4C0739DB1CE6835434E6845EAC60542
:100C9000066803EB0417F5514FF4C275076805EBBE
:100CA00004150E697E51097D012905D009E00E88E1
:100CB000CD6845EA4655EBE701684E5946F4807623
:100CC0004E511179D2F805504FF4C67641EA05210C
:100CD000056806EB0416A9511178D2F801204FF4EB
:100CE000C47541EA0221026805EB04155151006800
:100CF00003EB0411425842F0010242500020F0BDC3
:100D0000416A41F4001141620120F0BD10B590F834
:100D10002020012A09D090F82020022A05D0416A1B
:100D200041F480214162012010BD3A48D0F80022F0
:100D300042F00102C0F80022D0F8002222F47C52D6
:100D4000C0F80022D0F800224B6A42EA0322C0F821
:100D500000220B7D01229A40D0F81C329343C0F848
:100D60001C32CB69B3B9D0F80C329343C0F80C32C3
:100D70008C894B6864F31F434C6900EBC404C4F8CE
:100D800040320C890B6864F31F434C6900EBC404C8
:100D9000C4F84432CB69012B16D1D0F80C3213437E
:100DA000C0F80C320C884B6864F31F434C6900EBAD
:100DB000C404C4F840320C89CB6864F31F434C6907
:100DC00000EBC404C4F844328B69002BD0F8043221
:100DD0000ED01343C0F804320B69002BD0F8143244
:100DE00008D01343C0F81432096A012904D008E07E
:100DF0009343EFE79343F5E7D0F81C121143C0F893
:100E00001C12D0F8001221F00101C0F800120020DD
:100E100010BD0000006400400068416941F002011B
:100E20004161704730B590F82040012C07D090F810
:100E30002040022C03D0416A41F4802109E011B125
:100E4000012909D00CE00468E46807E0416A41F434
:100E500000114162012030BD04682469A407F5D067
:100E60004FF4D874056804EB01142D5915F00405EE
:100E7000956005682D5942D0ED08556005682C59DC
:100E8000C4F34004D4604FF4DA74056804EB011431
:100E90002D5905F00F05156105682D59C5F3072576
:100EA000956105682C59240C54614FF4DC72046878
:100EB00002EB0112A4581C700468A458240A5C7048
:100EC0000468A458240C9C700468A258120EDA70AE
:100ED0004FF4DE72046802EB0112A4581C7104681E
:100EE000A458240A5C710468A458240C9C710468FA
:100EF000A258120EDA7129B1012909D00DE06D0D49
:100F00001560BBE70068C16841F02001C16004E0E2
:100F10000068016941F020010161002030BD2DE928
:100F2000F05F0546006800244669D0F804908768A1
:100F3000D0F80CB0D0F810A0D0F81880F10748D045
:100F4000F90714D001218160B80703D5284600F0C5
:100F5000E4F90CE0780702D54FF4006407E03807A5
:100F600002D54FF4805402E0284600F0D5F9F80588
:100F700016D529684FF480708860B80503D52846D7
:100F800000F0CDF90CE0780502D544F4005407E0F8
:100F9000380502D544F4804402E0284600F0BEF94A
:100FA000F80316D529684FF480308860B80303D55C
:100FB000284600F0B6F90CE0780302D544F400446A
:100FC00007E0380302D544F4803402E0284600F0FC
:100FD000A7F9300707D55FEACB6004D52968102050
:100FE00044F40074C86070074FF0080707D55FEA43
:100FF0000B7004D52868C760284600F03FF9B00799
:1010000006D52868C068800702D0284600F038F965
:10101000700607D55FEACA6004D52968102044F439
:1010200080640861B00607D55FEA0A7004D52868B5
:101030000761284600F040F9F00606D528680069E7
:10104000800702D0284600F038F9B00308D55FEADF
:10105000C96005D5296810204860284600F02EF99F
:10106000F00307D55FEA097004D528684760284671
:1010700000F058F9300446D55FEA497040D5F005D4
:1010800004D55FEAC87001D044F00104B00504D56E
:101090005FEA887001D544F00204700504D55FEA68
:1010A000487001D544F00404300529D518F0700FBC
:1010B00026D008F07000402815D006DC102809D092
:1010C00020280AD0302816D10AE050280ED06028F7
:1010D00011D10EE044F008040DE044F010040AE0E1
:1010E00044F0200407E044F0400404E044F08004AD
:1010F00001E044F480742868816921F07001816105
:10110000296804204860002C05D0686A2043686282
:101110002846FFF781FEBDE8F09F70B5040003D0BC
:1011200094F8200010B104E0012070BD204600F0CA
:1011300081F82068016821F00201016000F0F6FBEF
:101140000546052604E000F0F1FB401B0A2811D8F3
:10115000206840688007F6D42068016841F00101EA
:10116000016000F0E3FB05460BE000F0DFFB401BF5
:101170000A2806D9606A40F40030606284F8206072
:10118000D2E720684068C007EFD0207E01282068A1
:1011900001683DD021F080010160607E0128206857
:1011A000016838D021F040010160A07E012820684C
:1011B000016833D021F020010160E07E0128206821
:1011C00001682ED041F010010160207F01282068C5
:1011D000016829D021F008010160607F01282068A2
:1011E000016824D021F004010160D4E90201084320
:1011F000D4E90412114308436168491E0843216879
:10120000C86100206062012084F82000002070BDC9
:1012100041F08001C0E741F04001C5E741F0200105
:10122000CAE721F01001CFE741F00801D4E741F00F
:101230000401D9E700B500680D4987B0884215D18F
:101240000C480021026842F000720260006802222D
:1012500000F0007005900320CDE90210CDE90002F6
:10126000092004906946044800F070FA07B000BDF8
:101270000064004040380240000C0240704700000B
:1012800010B501F00DFF09480068416941F0020105
:10129000416107490748FFF7D3FB05490548083175
:1012A000BDE810403438FFF7CBBB0000200200201F
:1012B000F4010020880B0020704770477047000041
:1012C00070B5044690F82000012804D0606A40F40C
:1012D0000020606218E0022084F820002068016885
:1012E00021F00101016000F021FB05460EE000BF86
:1012F00000F01CFB401B0A2808D9606A40F400304B
:101300006062052084F82000012070BD20684068DC
:10131000C007EDD1606270BD70477047704770477D
:101320007047704770472DE9F0410446876D00F023
:10133000FDFA064694F835000025022806D08020E4
:10134000606584F834500120BDE8F08120680168B0
:1013500021F0160101602068416921F0800141619E
:10136000206C08B9A06C20B12068016821F0080148
:1013700001602068016821F0010101600BE000F0CC
:10138000D5FA801B052806D92020606504F8345F53
:1013900003206070D8E720680068C007EFD194F898
:1013A0005C103F208840B86004F8345F0120607012
:1013B0000020C9E790F83510022903D0802141654B
:1013C00001207047052180F835100068016821F080
:1013D00001010160002070472DE9F84304464FF0F9
:1013E0000009CDF8009063484FF41651A56D0068D0
:1013F000B0FBF1F72E6894F85C10082000FA01F1B8
:1014000031420FD021680A6852070BD50A6822F0D2
:1014100004020A6094F85C108840A860606D40F097
:101420000100606594F85C104FF0010808FA01F0C3
:10143000304208D021684969090604D5A860606D6A
:1014400040F00200606594F85C100420884030424F
:1014500008D021680968890704D5A860606D40F04C
:101460000400606594F85C1010208840304218D069
:1014700021680968090714D5A86020680168490334
:1014800004D50068000308D5A16C07E00168C90510
:1014900003D4016821F008010160216C09B12046E4
:1014A000884794F85C1020208840304231D0216871
:1014B0000968C9062DD5A86094F83500052820686C
:1014C000016806D0490347D5006800031DD4616C4C
:1014D0001CE021F0160101602068416921F08001C3
:1014E0004161206C08B9A06C20B12068016821F02E
:1014F0000801016094F85C103F208840A86084F8DF
:10150000349084F83580216D1FE0E16B09B12046ED
:101510008847606D00282BD0606DC00714D005206F
:1015200084F835002068016821F00101016000980D
:10153000401C0090B84203D820680068C007F6D16C
:1015400084F8349084F83580E16C002910D001B023
:101550002046BDE8F04308470168C905D5D40168B5
:1015600021F01001016084F8349084F83580CCE7D4
:10157000BDE8F883180200202DE9F041044600F090
:10158000D5F906465CB1002584F83450022084F871
:1015900035002068016821F0010101600DE00120A3
:1015A000BDE8F08100F0C2F9801B052805D9202094
:1015B0006065032084F83500F2E720680068C00702
:1015C000F0D12268116820480140D4E90103184392
:1015D000D4E903363343184363691843A3691843B6
:1015E000E3691843236A18430843616A042903D155
:1015F000D4E90B1319430843106020684069666AF8
:1016000020F0070130460E43012704280CD1A06AC0
:101610000643E06A40B12046FFF7C8F920B14020F8
:10162000606584F83570BAE7206846612046FFF7A8
:10163000A9F994F85C203F2191408160656584F8A8
:1016400035700020ACE700003F8010F070B5044614
:1016500090F83400002501280CD0012084F83400D3
:1016600094F835600020012E06D084F8340002255D
:10167000284670BD022070BD022684F83560606582
:101680002046FFF7BDF92068016841F001010160C3
:10169000EEE72DE9F0410446866D90F83400002510
:1016A00001280DD0012084F8340094F83570002012
:1016B000012F07D084F8340002252846BDE8F081C8
:1016C0000220FBE7022784F8357060652046FFF7AB
:1016D00097F994F85C103F208840B060206801685A
:1016E00041F0160101602068416941F080014161CB
:1016F000206C20B12068016841F008010160206879
:10170000016841F001010160D7E7000070B50446AF
:1017100000F00CF90546601C02D00448007804442F
:1017200000F004F9401BA042FAD370BD0C02002067
:1017300070470000044910B50A68024202D00860F0
:10174000FFF7F6FF10BD0000143C01402DE9F84FF3
:10175000DFF890B100224FF001084FF0030A4FF07C
:101760000F090BF1040E00BF0B6808FA02F42340C6
:10177000A3426ED14D68022D01D0122D0ED1D50895
:1017800000EB850CDCF820505607F70E09FA07F637
:10179000B5430E69BE402E43CCF820600668550064
:1017A0000F790AFA05FC07F0030726EA0C06AF409A
:1017B000374307604E68012E05D0022E03D0112E4C
:1017C00001D0122E0ED18768CE6827EA0C07AE40F2
:1017D0003E4386604668A6430C79C4F300149440E7
:1017E00034434460C4688E6824EA0C04AE40264347
:1017F000C6604C68E4006FD53B4C256845F48045D5
:101800002560246822F0030504F480440094374CDA
:101810002E19D6F8084895072F0F09FA07F5AC439B
:10182000334DA84201D100252EE0324DA84201D10E
:10183000012529E0304DA84201D1022524E02F4D99
:10184000A84201D103251FE02D4DA84202D1042555
:101850001AE041E02B4DA84201D1052514E02A4DA4
:10186000A84201D106250FE0284DA84201D1072545
:101870000AE0274DA84201D1082505E0254DA842E0
:1018800001D1092500E00A25BD402543C6F80858C6
:10189000DBF800405D464E689C43F60300D51C43D0
:1018A0002C60DEF8004075464E689C43B60300D5B8
:1018B0001C432C600B4D08352C684E689C43F60287
:1018C00000D51C432C60074D0C352C684E689C439A
:1018D000B60200D51C432C60521C102AFFF444AF02
:1018E000BDE8F88F003C0140443802400030014020
:1018F000000002400004024000080240000C0240C8
:10190000001002400014024000180240001C024077
:10191000002002400024024042694A404261704770
:101920000AB1816170470904FBE700000148806843
:10193000704700000C0200200248816802781144C0
:10194000816070470C0200200B4810B5016841F41B
:1019500000710160016841F480610160016841F437
:1019600080710160032000F097F8002000F006F875
:1019700000F024F8002010BD003C024070B50D4D71
:1019800004464FF47A712878B1FBF0F00A490968EF
:10199000B1FBF0F000F06FFC48B9102C07D2002228
:1019A0002146501E00F058F800206C6070BD0120E8
:1019B00070BD00000C020020180200201F4808B56E
:1019C000016841F480410160006800F480400090AB
:1019D0001A48001F016841F080510160006800F062
:1019E00080500090032000F057F8002211466FF05D
:1019F0000B0000F031F8002211466FF00A0000F0F1
:101A00002BF8002211466FF0090000F025F80022A3
:101A10001146501F00F020F800221146101F00F060
:101A20001BF800221146901E00F016F80022BDE8B7
:101A300008401146501E00F00FB800004438024024
:101A400000F01F02012191404009800000F1E020D8
:101A5000C0F8001170470000F0B40E4B1B680C4634
:101A6000C3F30223C3F10705042D00D90425191D72
:101A7000072901D2002300E0DB1E012606FA05F14A
:101A8000491E214099409E40761E16403143F0BCCD
:101A900001F045BB0CED00E0064900F007020868C4
:101AA0004FF6FF03184040EA0220034A1043086043
:101AB000704700000CED00E00000FA052DE9F0474A
:101AC0000E46050065D0DFF81481D8F80000F7B2A3
:101AD00000F00F00B04207D288F80070D8F800007C
:101AE00000F00F00B04254D128683D4C810712D558
:101AF000400703D5206840F4E050206028780007B4
:101B000003D5206840F4604020602068A96820F078
:101B1000F000084320602878C0072DD0304968685D
:101B20000839012812D0022813D0032811D00968DF
:101B3000890700292DDA216821F003010143216082
:101B4000FFF7F4FE814641F2883A0EE00968890306
:101B5000EFE709688901ECE7FFF7E8FEA0EB090170
:101B6000514502D90320BDE8F0872068696800F07C
:101B70000C00B0EB810FEFD1D8F80010404601F017
:101B80000F01B14207D90770006800F00F00B042A2
:101B900001D00120E7E72878400705D52068E968EB
:101BA00020F4E050084320602878000706D520681C
:101BB000296920F4604040EAC100206000F03CF850
:101BC0002168084AC1F30311515CC8400649086006
:101BD0000020FFF7D3FE0020C5E70000003C0240D4
:101BE000083802400C58000818020020014800681C
:101BF0007047000018020020044805490068096881
:101C0000044AC1F38221515CC84070471802002089
:101C1000083802401C580008044805490068096853
:101C2000044AC1F34231515CC84070471802002099
:101C3000083802401C580008154810B5006810F01C
:101C40000C02144813D01449042A0FD0082A0ED1CC
:101C50000F4C241F2268236802F03F025B0207D565
:101C60002068C0F38810A0FB010106E0084610BD03
:101C70002168C1F38811A1FB00010023FEF7B2FA2D
:101C80002168C1F30141491C4900B0FBF1F010BDCE
:101C9000083802400024F400001BB7002DE9F84F7B
:101CA000050076D02878DFF8F8B2BE4CC00749D0DE
:101CB000DBF800105846C1F38101012908D0006803
:101CC000C0F3810002280AD1201D0068400206D519
:101CD0002068800336D568680028E2D032E0686862
:101CE000B0F5803F10D0B0F5A02F206810D020F4C0
:101CF00080302060206820F4802020606868A0B1D7
:101D0000FFF714FE06460CE0206840F48030F4E74C
:101D100040F480202060F7E7FFF708FE801B64286E
:101D200073D820688003F7D50CE0FFF7FFFD064667
:101D300005E000BFFFF7FAFD801B6428F0D820689B
:101D40008003F7D42878DFF8608280074FF000091D
:101D50003ED5DBF80010584611F00C0F09D0006892
:101D6000C0F3810002280BD18D48001F006840029B
:101D700006D42068800715D5E868012809D111E04C
:101D8000E868B8B10120C8F80000FFF7CFFD0646AB
:101D900005E002E1FFF7CAFD801B0228C0D82068D9
:101DA0008007F7D52068296920F0F80040EAC100D3
:101DB00020600DE0C8F80090FFF7B8FD064604E08B
:101DC000FFF7B4FD801B02281FD820688007F7D4D6
:101DD0002878000722D5724E744869696C3671B153
:101DE00001210160FFF7A2FD074604E0FFF79EFD19
:101DF000C01B022809D830688007F7D50EE0C0F86C
:101E00000090FFF793FD074605E083E0FFF78EFDA6
:101E1000C01B02287ED830688007F7D42878400796
:101E200068D5DFF87CA100270AF1380ADAF800004B
:101E3000C0000BD4DAF8001041F08051CAF800104D
:101E4000DAF80000012700F080500090584E30680A
:101E5000C00510D4306840F480703060FFF766FD34
:101E6000009005E0FFF762FD0099401A022851D862
:101E70003068C005F6D54A4EA868683601280FD0EC
:101E80000528306810D020F001003060306820F064
:101E900004003060A868B8B1FFF748FD00900FE07B
:101EA000306840F00100F4E740F004003060F7E7EC
:101EB000FFF73CFD0099411A41F28830814264D815
:101EC00030688007F4D50EE0FFF730FD009007E0A2
:101ED000FFF72CFD0099411A41F28830814254D815
:101EE00030688007F4D42FB1DAF8001021F0805167
:101EF000CAF80010A869C0B3DBF80010C1F3810173
:101F000002294AD00228484607D0C8F86000FFF7E7
:101F10000DFD00E039E005463AE04746C8F86000AC
:101F2000FFF704FD064604E0FFF700FD801B0228D2
:101F30002BD820688001F7D4D5E907010843A96AA6
:101F40001C4A490802EB01416A6A41EA82110843CE
:101F500095F82C1040EA01611148001F0160012032
:101F60003866FFF7E3FC054605E014E0FFF7DEFC0A
:101F7000401B022809D820688001F7D50BE000BF7C
:101F8000FFF7D4FC401B022802D90320BDE8F88FDC
:101F900020688001F4D40020F8E70120F6E7000073
:101FA000083802400038024000004742800E474295
:101FB000007000400000FFFF70B5040005D0002550
:101FC000A56294F8510010B106E0012070BD84F8BC
:101FD0005050204600F030F8022084F8510020686C
:101FE000016821F040010160D4E901010843D4E90E
:101FF00003121143084361690843218B01F4007106
:102000000843E1690843216A0843A16A084321683B
:102010000860A069042101EA1040616A0843216850
:1020200048602068C16921F40061C16165650120D3
:1020300084F85100002070BD00B500680E4987B0DB
:10204000884217D10D480021026842F480120260D4
:10205000006800F4801005904FF46070009002203A
:10206000CDE901010320039005200490694604484E
:10207000FFF76CFB07B000BD005001404438024040
:10208000001402402DE9F84F044690F85000002655
:102090000A9F9A4693460D464FF0010801280ED03C
:1020A000012084F85000FFF741FC814694F851006C
:1020B000616801280CD0B1F5827F07D102E00220CF
:1020C000BDE8F88FA16809B9042801D00226BDE057
:1020D00055B1BBF1000F07D0BAF1000F04D094F84E
:1020E0005100012802D004E00126AFE0052084F869
:1020F000510000206065C4F838B0A4F83EA0A4F8F0
:102100003CA02563A4F836A0A4F834A02064606441
:1021100020680168490603D4016841F0400101606C
:10212000E068B0F5006F606804D0E8B3E08E012885
:102130003BD06AE010B1E08E01282ED1216835F83D
:10214000020BC860E08E401EE08626E0B8F1000F6A
:102150000DD0E08E58B120688168890707D535F821
:10216000021BC160E08E401EE0864FF00008E08F49
:1021700058B120688168C90707D0C0682BF8020BE6
:10218000E08F401EE0874FF00108781C05D0FFF774
:10219000CDFBA0EB0900B84246D2E08E0028D5D195
:1021A000E08F0028D2D136E0FFE7216815F8010B57
:1021B0000873E08E401EE08627E000BFB8F1000FF4
:1021C0000DD0E08E58B120688168890707D515F8D1
:1021D000011B0173E08E401EE0864FF00008E08F87
:1021E00058B120688168C90707D0C0680BF8010B97
:1021F000E08F401EE0874FF00108781C05D0FFF704
:1022000095FBA0EB0900B8420ED2E08E0028D5D194
:10221000E08F0028D2D13B46012202212046CDF892
:10222000009001F071F808B103260FE04A463946E4
:10223000204601F059F818B101262020606505E01C
:10224000A06818B92068C16880680090012084F8EF
:102250005100002084F85000304631E74FF0E02173
:102260000428086903D020F004000861704740F09A
:102270000400FAE7704710B5401EB0F1807F01D32B
:10228000012010BD4FF0E02460610F21601700F0C5
:1022900046FF0020A06107202061002010BD10B57E
:1022A000FFF7E8FF10BD7047704730B590F8382051
:1022B000012A20D0012280F83820022380F839300A
:1022C00003685C6824F070045C6003685C680D68F7
:1022D0002C435C6003689C6824F080049C60036865
:1022E0009C6849680C439C6080F83920002180F884
:1022F0003810084630BD022030BD10B5040003D0B0
:1023000094F8390010B107E0012010BD002084F8D6
:102310003800204600F00CF8022084F83900211D16
:10232000206801F035F9012084F83900002010BD43
:1023300008B501681048B1F1804F14D00F4A91429E
:1023400019D1016841F0100101600068002200F01D
:102350001000009011463620FFF77EFBBDE80840D4
:102360003620FFF76DBB016841F001010160006894
:1023700000F00100009008BD40380240001000400D
:102380000168CA6842F00102CA600068016841F051
:10239000010101600020704770B5044690F83800D4
:1023A000012817D0012584F83850022084F839001C
:1023B0002068826822F0770222F47F4282600868F7
:1023C000502837D00DDC202859D005DC88B31028E0
:1023D00041D151E0022070BD302853D040283AD17D
:1023E0003FE060282ED070280BD0B0F5805F03D07E
:1023F000B0F5005F2FD110E02068816821F007015F
:1024000015E0CB68D1E90121206801F021F92168AC
:10241000886840F0770088601DE0CB68D1E9012131
:10242000206801F015F92068816841F480418160DD
:1024300011E01EE0CA684968206801F01BF95021CC
:10244000206806E0CA684968206801F024F9602124
:10245000206801F007F984F83950002084F838002A
:1024600070BDCA684968206801F004F940212068FD
:10247000EFE700212068ECE710212068E9E7202140
:102480002068E6E730212068E3E7704770B504462E
:10249000006801694FF00005C943890715D4C16878
:1024A000C943890711D4E91E016101202076206803
:1024B00080698007204602D0FFF7E7FF04E000F0C4
:1024C00098F8204600F096F8257620680169C943FF
:1024D000490717D4C168C943490713D46FF00401F1
:1024E0000161022020762068806910F4407F204638
:1024F00002D0FFF7CAFF04E000F07BF8204600F0AE
:1025000079F8257620680169C943090716D4C1689E
:10251000C943090712D46FF0080101610420207635
:102520002068C0698007204602D0FFF7AEFF04E0B4
:1025300000F05FF8204600F05DF82576206801691C
:10254000C943C90617D4C168C943C90613D46FF07B
:1025500010010161082020762068C06910F4407FD6
:10256000204602D0FFF791FF04E000F042F8204639
:1025700000F040F8257620680169C943C90708D1F1
:10258000C168C943C90704D1891E0161204600F012
:1025900033F820680169C943090609D4C168C943F1
:1025A000090605D46FF0800101612046FFF77BFE2C
:1025B00020680169C943490609D4C168C94349066D
:1025C00005D46FF040010161204600F065F82068F5
:1025D0000169C94389060BD4C168C943890607D478
:1025E0006FF0200101612046BDE87040FFF75CBE3E
:1025F00070BD7047704700002DE9F04121498842C5
:102600003DD1214C0A2101256068401CB0FBF1F24C
:10261000606001FB12002580002830D11B481D4E50
:102620001C4900681A4F1B4B603EB839B84202D9AA
:10263000174A543A03E0984203D9154A583A1268A7
:1026400004E0B04201D94A6800E00A6812F4001FB1
:1026500014D04FF40012B84202D90D484C3803E0B0
:10266000984203D90A485038026004E0B04201D9C8
:10267000CA6000E08A60054800F031F86580BDE876
:10268000F0810000DC020020000000205803002040
:1026900058640240B8600240704770B50446006854
:1026A000C16821F49071C1602068416921F0010185
:1026B0004161206841694FF00005490609D541692B
:1026C00021F040014161606B18B10565606BFEF758
:1026D0002AFEE585202084F83A00002070BD10B560
:1026E00004460068416994F83920C1F3C011212AD9
:1026F0000BD151B1416921F080014161206B08B1DA
:10270000FEF711FE204601F052F82068416994F866
:102710003A20C1F38011222A0BD151B1416921F035
:1027200040014161606B08B1FEF7FDFD204601F0FC
:1027300030F8002010BD704770B50268044610687C
:10274000D168536910F00F0F50D003F0010501F468
:10275000907635435DD0C20705D0CA0503D5E26B3C
:1027600042F00102E263420705D5DA0703D0E26BCB
:1027700042F00202E263820705D5DA0703D0E26B7A
:1027800042F00402E263020705D5DA0703D0E26BE8
:1027900042F00802E263E26B002A33D0800604D5DF
:1027A000880602D5204601F00BF820684069E16BED
:1027B000C0F38010090700D428B3204600F0E9FFD9
:1027C0002068416949061AD5416921F040014161FB
:1027D000606BA0B11B490165606BFEF7EBFD002843
:1027E00010D0606B016DBDE870400847830610D5BE
:1027F0008B060ED52046BDE8704000F0E1BF2046B4
:10280000FFF799FF70BD2046FFF795FF0020E063BA
:1028100070BD030606D50B0604D52046BDE8704002
:1028200001F06AB94006F3D54806F1D5D1682046D3
:1028300021F04001D160202184F8391000F054F9D2
:1028400070BD0000BB36000870B5040004D094F8D9
:102850003900002510B106E0012070BD84F8385021
:10286000204600F023F8242084F839002068C1684D
:1028700021F40051C160204600F0E8FF20680169A2
:1028800021F4904101612068416921F02A014161F0
:102890002068C16841F40051C160E563202084F8DC
:1028A000390084F83A00002070BD00002DE9F0479F
:1028B000064605684148DFF800C1022101220323D2
:1028C0000024071586B04FF4807A654528D1056845
:1028D00045F010050560006800F010000590C0206C
:1028E0008DE80F000720049069463548FEF72EFF5B
:1028F000354D344828607804C5E90104C5E903472B
:102900006C61C5E9064A2C6228466C62FEF734FE0B
:1029100008B185214CE07563AE6306B0BDE8F08771
:10292000DFF8A8C06545F8D1056845F020050560C9
:10293000006800F0200005904FF484408DE80F00FF
:102940000820049069462248FEF700FF1E4D1D48EE
:10295000603560304FF02069E5E802094020B84654
:10296000A5E81101184845F814495746C5E9064A33
:102970002C6260306C62FEF7FFFD18B1AF2115A02C
:1029800001F029F93563AE630F4D0E48C035183894
:102990002860C5E90194C5E903486C61C5E90647AB
:1029A0002C6228466C62FEF7E7FD0028B3D0C121F7
:1029B00008A001F010F9AEE70010014044380240D1
:1029C00000040240406402409803002000140140CB
:1029D000001802402E2E2F5372632F75736172748C
:1029E0002E630000F8B5044690F83A00202831D153
:1029F00071B36AB394F8380001282BD0012084F811
:102A00003800A162A2850025E563222084F83A00FF
:102A1000636B1148D863636B10481864636B10488C
:102A2000D864606B134605650846666B21680246EC
:102A30003046091DFEF72DFE2068016841680091AF
:102A400084F83850416941F0400141610020F8BDEF
:102A50000120F8BD0220F8BD1537000851370008E5
:102A6000CB3600087047704770B5044690F83900BF
:102A7000202830D169B362B394F8380001282AD0F5
:102A8000012084F838002162A284E2840025E563F5
:102A9000212084F83900236B1048D863236B104839
:102AA0001864236B0F48D864206B134605652668AD
:102AB000206B321DFEF7EDFD21686FF040000860CD
:102AC00084F838502068416941F08001416100205C
:102AD00070BD012070BD022070BD00005B37000892
:102AE00089370008CB36000870477047FEE70000C2
:102AF000114810B50F4901600321416000214FF4D6
:102B0000A0228160C0E903124FF4C0024261017645
:102B1000417681760122C27601774177FEF7FDFA90
:102B200018B1452105A001F056F8BDE81040FDF7A9
:102B3000D5BF000000640040200200202E2E2F533D
:102B400072632F63616E2E6300000000114808B5A8
:102B5000016841F4800101600068002200F48000F7
:102B6000009011463920FEF777FF3920FEF768FF05
:102B7000002211463A20FEF76FFF3A20FEF760FF71
:102B8000002211464520FEF767FFBDE808404520BA
:102B9000FEF756BF3038024070B52C4886B000248E
:102BA000016841F040010160016801F040010591B8
:102BB000016841F002010160016801F00201059124
:102BC000016841F001010160016801F00101059116
:102BD000016841F008010160016801F008010591F8
:102BE000016841F080010160016801F080010591F8
:102BF000016841F0200101600068154E00F02000DE
:102C000044F240050590002229463046FEF788FE32
:102C100001200095CDE90104694630460394FEF792
:102C200095FD4FF4405000900A48CDE901046946F3
:102C30000948FEF78BFD002211462820FEF70CFF05
:102C40002820FEF7FDFE06B070BD000030380240BF
:102C50000014024000002110000C0240114810B581
:102C60000F4901604FF48271416000218160C160B1
:102C70004FF400720161C0E905123022C0E907215A
:102C8000416281620A21C162FFF796F9002805D0EE
:102C9000BDE81040452104A000F09DBF10BD00001C
:102CA00000500140480200202E2E2F5372632F73D4
:102CB00070692E630000000010B5164886B04FF012
:102CC0008041016053210024C0E90114611EC0E964
:102CD0000314FFF712FB18B13F210FA000F07BFF98
:102CE0004FF48050009069460A48FFF755FB18B131
:102CF000452109A000F06FFF049404A9054805943C
:102D0000FFF7D3FA002803D04C2103A000F063FFA3
:102D100006B010BDA00200202E2E2F5372632F7418
:102D2000696D2E63000000001CB510480E49002498
:102D300001605321C0E9011440F2E731C160FFF79F
:102D4000DCFA18B15B210AA000F045FF0094694647
:102D500006480194FFF7A9FA002803D0622104A0D5
:102D600000F039FF1CBD000000100040DC02002014
:102D70002E2E2F5372632F74696D2E630000000096
:102D80000E4810B50C4901600D49416000214FF417
:102D900080628160C0E903120C22C0E90521C16193
:102DA000FFF752FD002805D0BDE81040472105A0DF
:102DB00000F011BF10BD00000010014018030020FA
:102DC000A08601002E2E2F5372632F7573617274CB
:102DD0002E63000010B5124C10480C2120604FF4F7
:102DE000E13060600020A060E060C4E90401A061FF
:102DF000E0612046FFF728FD18B15A2109A000F034
:102E0000EAFE2068C16841F01001C160BDE81040D1
:102E1000502208490248FFF7E5BD000000140140B8
:102E2000580300202E2E2F5372632F757361727416
:102E30002E630000D40400202DE9F041584D574E78
:102E40004FF082482DED028B00279FED568AA5F2A8
:102E50003C5498E05249A1F5976001F0FFFBFF2830
:102E60000AD10622691C504801F028FCE91D4E4891
:102E700001F0F4FBFE2839D03078002876D000BF6E
:102E8000B5F9020000EE100AF8EEC00A80EE880ADA
:102E900084ED000AB5F9040000EE900AF8EEE00AAD
:102EA00080EE881A84ED011AA879A060687884F809
:102EB0006800E8B3D4ED1B0A3C4A30EEC00AB0EE1D
:102EC000C00A10EE101A914251DA84F87C000128F1
:102ED0000FD000F073F894ED170A84ED1B0A94EDFF
:102EE000180A84ED1C0A94ED190A2FE001203070B5
:102EF000C6E794ED170A30EEC00AB0EEC00A10EE35
:102F0000101A41450BDA94ED1C0AD4ED180A30EE84
:102F1000600AB0EEC00A10EE101A414507DBFDF75B
:102F200061FED4F88010401A214988422BD900E074
:102F30001DE000F043F894ED170A84ED1B0A94EDB0
:102F4000180A84ED1C0AA87900EE100AB8EE400AAF
:102F5000C0EE080ABCEEE00A10EE100A84F87D000C
:102F60006034FDF73FFE2062A777603C0BE0FDF781
:102F700039FED4F88010401A0E49884203D994F8DB
:102F8000680084F87C00084801F0ABFB00287FF45F
:102F900061AFBDEC028BBDE8F0810000D0010020E4
:102FA000EC0A00200000C842340600200000204245
:102FB000A086010020A10700FEE7000010B53548FB
:102FC000012435494470437801EB83025B1C92ED88
:102FD000030A82ED020A92ED080A82ED070ADAB2CC
:102FE0004270032AEFD34470427801EB8203521CF3
:102FF0005C6BD2B21C634270092AF5D391ED000AD2
:1030000081ED050A91ED010A81ED0A0A8A684A6597
:103010009FED220A0022427080ED020A80ED030A31
:10302000F0EE400A437801EB83045B1C94ED031A35
:10303000DBB2032B71EE200A94ED081A437031EED7
:10304000000AEFD3C0ED020A80ED030A427002616C
:10305000437801EB83045B1C646BDBB22244437056
:10306000092BF5D3B0EE081A0261C0EE811AC0EE4A
:10307000010A00EE102AC1ED171AB8EE400AC1EDA0
:10308000180AF4EE000A20EE200ABCEEC00A81ED18
:10309000190A10BDD0010020B0050020000000007A
:1030A00010B5FDF735FC08B1002010BD0C480D49E6
:1030B0000268A2F50070053805D10B4B0C5C1C545E
:1030C000401C0828FADBA2F50070063806D1064A33
:1030D000083A0B5C1354401C0828FADB012010BD91
:1030E000BC0B002004020020FC01002010B54FF4AE
:1030F00080410648FEF710FC05490648FDF76AFDC9
:10310000BDE81040044800F0A1B9000000140240DE
:10311000F4010020880B0020F00B00207047090705
:10312000090E002806DA00F00F0000F1E02080F818
:10313000141D704700F1E02080F800147047D0EDB6
:10314000031AC0ED021A90EC020A70EE600AC0ED9C
:10315000030A90ED040A30EE200A80ED040A90ED97
:103160000C2A90ED061AB1EE423AC3EE012AF4EEB3
:10317000C02AF1EE10FA06DAC2EE012AF4EEC02AF5
:10318000F1EE10FA01D8C0ED042A90ED050A90ED99
:10319000042A20EE200A70EEE10A01EE020A90ED08
:1031A000071A01EE200A80ED0E0AD0ED0F0AB1EEEB
:1031B000601AB4EEC10AF1EE10FA02D880ED0E1AD0
:1031C0007047B4EEE00AF1EE10FAF9DBC0ED0E0A3A
:1031D000704700009FED0C0A80ED020A80ED030AA3
:1031E00080ED040A80ED0E0A084880ED010A80EDAA
:1031F000020A80ED000A0C3880ED000A80ED010A19
:1032000080ED020A7047000000000000180B00204B
:1032100010B5044680EC020AC16C884794ED0E0A92
:1032200010BD704770B52A4C2DED068BB4F9060021
:10323000002801DB014600E041424843FDF7AFF9B9
:103240009FED24AB53EC1A2BFDF73AF99FED239B2E
:1032500053EC192BFDF7C2F8224D41EC180B2868EE
:10326000FDF7AEF953EC182BFDF711F8FDF7D4F983
:1032700000EE100A0120FDF7B9FCB4F904000028A3
:1032800001DB014600E041424843FDF788F953EC79
:103290001A2BFDF715F953EC192BFDF79FF841ECAC
:1032A000180B6868FDF78CF953EC182BFCF7EFFF4F
:1032B000FDF7B2F900EE100A0120FDF7A5FC02208F
:1032C000FDF72EFCBDEC068BBDE8704000F0D4B8D5
:1032D000CA0400200000000000A08440000000E0BC
:1032E0004D62703F0800002038B50B46009204463E
:1032F0000022802100F008F8002804D0606D40F022
:1033000020006065032038BD2DE9F0411D461746B9
:103310000E460446DDF8188035E0681C33D02DB128
:10332000FEF704FBA0EB0800A8422CD320684168FC
:1033300021F0E00141606068B0F5827F0BD1A068A8
:10334000B0F5004F02D0B0F5806F04D1206801685D
:1033500021F040010160A06AB0F5005F0AD1206849
:1033600001684DF6FF72114001602068016841F468
:1033700000510160012084F85100002084F85000C1
:103380000320BDE8F0812068806836EA000004D0A0
:103390000020B842C1D10020F3E70120F9E77047CF
:1033A00070B58EB034216846FCF766FF2149DFED29
:1033B000220A224A91ED0C0A07266C4620EE200ACA
:1033C000BDEEC00A10EE100A508091ED0B0A20EEFF
:1033D000200ABDEEC00A10EE101A9180DA228DF894
:1033E0000020020A8DF801208DF80200080A8DF8ED
:1033F00003008DF8041000208DF80500DB208DF807
:10340000060000250E48615D01F03FF96D1CB542D4
:10341000F8DB0B4801F065F9C4B2224609490848B7
:1034200001F04CF9224607490748FFF71DFB0EB093
:1034300070BD0000240500200000C842D00100201B
:103440002C080020240A00205803002010B5014653
:1034500089220648FCF7F7FE054941F68230C8612B
:10346000044941F66A50C86110BD0000150D0020E6
:10347000880B0020540B00200021084601F0B2B94F
:1034800010B5FEF759FABDE81040FEF708BF00007E
:1034900030B5254893B00025016841F080510160A6
:1034A000006800F0805011902048016841F44041CC
:1034B00001600068022400F4404011900120009057
:1034C000000401908001CDE906400C2008904FF4E3
:1034D000A870CDE9090404200B906846FEF7DEFBD6
:1034E00000B1FEE70CA90F2081E831004FF4A05095
:1034F0000F904FF48050109005210CA8FEF7DEFAD3
:1035000000B1FEE7FEF772FB4FF47A71B0FBF1F009
:10351000FEF7B1FE0420FEF7A1FE00221146501E68
:10352000FEF79AFA13B030BD4038024000700040F8
:103530001048016841F4700101600F48016841F0D2
:10354000010101600C4A00210832116002680B4B36
:103550001A400260031D0A4A1A60026822F480229F
:10356000026005480C300160024958068039086045
:103570007047000088ED00E000380240FFFFF6FED3
:10358000103000240148FEF781BF0000DC0200205B
:10359000F0B50268234B244D244E254F254C4FF0A7
:1035A000804C984209D0604507D0A84205D0B0426F
:1035B00003D0B84201D0A04204D122F0700E4A6874
:1035C00042EA0E0298421BD0604519D0A84217D09B
:1035D000B04215D0B84213D0A04211D0164DA84227
:1035E0000ED0164DA8420BD0154DA84208D0154D4F
:1035F000A84205D0144DA84202D0144DA84203D1D0
:1036000022F44075CA682A4302608A68C2620A6866
:103610008262984201D0A04201D10969016301216F
:103620004161F0BD0000014000040040000800407E
:10363000000C0040000401400040014000440140F3
:103640000048014000180040001C004000200040DD
:1036500010B5846842EA032224F47F440A432243DB
:10366000826010BD826822F070020A4342F00701B6
:103670008160704710B5036A046A24F00104046293
:10368000846924F0F00444EA021423F00A020A4395
:103690008461026210BD10B5036A23F01003036257
:1036A0008369046A23F4704343EA023224F0A003DE
:1036B00043EA01118261016210BD10B5806B0021E7
:1036C000C185C184FFF737F810BD70B5846B2068E1
:1036D000406994F83910C0F3C0100025212904D1A5
:1036E00018B1E584204600F062F82068406994F83B
:1036F0003A10C0F38010222904D118B1E585204684
:1037000000F047F8E06B40F01000E0632046FFF760
:1037100012F870BD10B50146806B09680968C905CB
:1037200013D40021C1850168CA6822F48072CA607E
:1037300001684A6922F001024A6101684A6922F07F
:1037400040024A61202180F83A10FFF78BF910BD42
:1037500010B5806BFFF787F910BD10B50146806B7F
:1037600009680968C9050CD40021C18401684A6947
:1037700022F080024A610068C16841F04001C160E6
:1037800010BDFFF7B1F910BD10B5806BFFF7ADF9B3
:1037900010BD0168CA6822F49072CA6001684A6963
:1037A00022F001024A61202180F83A107047016836
:1037B000CA6822F0C002CA60202180F83910704720
:1037C00010B590F83A10222901D0022010BD81686E
:1037D000B1F5805F11D00169002901681FD04968E7
:1037E00001F07F03816A4A1C82620B70C18D491E01
:1037F0000904090CC18518D026E00269816A002AF3
:103800000268526805D0D2B20A80816A491C81627E
:10381000ECE7C2F308020A80816A891CF7E74A686C
:10382000816A4B1C83620A70E0E70168CA6822F46F
:103830009072CA6001684A6922F001024A6120213F
:1038400080F83A10FFF70EF9002010BD2DE9F04185
:1038500004460068016921F44052E16811430161A6
:103860002168C86849F20C6290432369A268E5693F
:103870001A4363692B431A430243CA6021684869AB
:1038800020F44072A06910434861E1696425B1F5F4
:10389000004F9748974A21684FF032083FD0914235
:1038A00001D081427CD1FEF7B7F900EBC00101EBFA
:1038B000001061688900B0FBF1F6FEF7ADF900EB8E
:1038C000C00101EB001061688900B0FBF1F0B0FBB2
:1038D000F5F06FF01801484306EB800108EB01108A
:1038E000B0FBF5F000F0F006FEF796F900EBC00132
:1038F00001EB001061688900B0FBF1F0B0FBF5F05E
:1039000006EB0016FEF788F900EBC00101EB001092
:1039100061688900B0FBF1F7FEF77EF9D2E09142D1
:1039200001D081423DD1FEF777F900EBC00101EBF8
:10393000001061684900B0FBF1F0B0FBF5F0060142
:10394000FEF76AF900EBC00101EB00106168490065
:10395000B0FBF1F7FEF760F900EBC00101EB0010DE
:1039600061684900B0FBF1F0B0FBF5F06FF01801B1
:10397000484307EB800108EBC100B0FBF5F000F015
:10398000F80006EB4006FEF747F900EBC00101EB3B
:10399000001061684900B0FBF1F7FEF73DF93CE02B
:1039A00055E0FEF729F900EBC00101EB001061685A
:1039B0004900B0FBF1F0B0FBF5F00601FEF71CF991
:1039C00000EBC00101EB001061684900B0FBF1F7AA
:1039D000FEF712F900EBC00101EB0010616849002D
:1039E000B0FBF1F0B0FBF5F06FF01801484307EBC6
:1039F000800108EBC100B0FBF5F000F0F80006EB29
:103A00004006FEF7F9F800EBC00101EB0010616819
:103A10004900B0FBF1F7FEF7EFF800EBC00101EB56
:103A2000001061684900B0FBF1F0B0FBF5F06FF0F9
:103A30001801484307EB800108EBC100B0FBF5F02B
:103A400000F00700216830448860BDE8F081FEF78F
:103A5000D3F800EBC00101EB001061688900B0FBF6
:103A6000F1F6FEF7C9F800EBC00101EB0010616848
:103A70008900B0FBF1F0B0FBF5F06FF0180148439E
:103A800006EB800108EB0110B0FBF5F000F0F0064A
:103A9000FEF7B2F800EBC00101EB0010616889008D
:103AA000B0FBF1F0B0FBF5F006EB0016FEF7A4F862
:103AB00000EBC00101EB001061688900B0FBF1F779
:103AC000FEF79AF800EBC00101EB00106168890075
:103AD000B0FBF1F0B0FBF5F06FF01801484307EBD5
:103AE000800108EB0110B0FBF5F000F00F00A9E732
:103AF000001401400010014090F83910212901D034
:103B0000022070478168B1F5805F016A0BD04A1CC2
:103B10000262026809785160C18C491E0904090CCF
:103B2000C1840ED017E009880268C1F30801516012
:103B300001690029016A02D0491C0162ECE7891C75
:103B4000FBE70168CA6822F08002CA600068C168A9
:103B500041F04001C16000207047000010B50448EA
:103B600001F016FEBDE810400148FEF7E5BD00007B
:103B700018030020F8B5134800680168C943C90656
:103B80001CD40168406800900E48FEF786FD0E4880
:103B900000684068C0F1500085B2502D09D2002461
:103BA0000A4E04E0315D0A4800F06FFD641CAC422F
:103BB000F8DB502205490348FEF714FFBDE8F84042
:103BC000FFF73AB95803002058040020D40400201D
:103BD00034060020FEE7FEE703B401984100009898
:103BE00050EAC12018BF04204A0D18BF40F0010060
:103BF00040F2FF72B2EB515F08BF40F002000128B3
:103C000008BF052002B0704770B5C1482DED020B0A
:103C10002DED0E8B82B0119D25F000449FEDBEDB93
:103C20009FEDBFEB84423EDBA4F140511098A1F11F
:103C30007F6108430FD0BC48844202DC28D1109831
:103C400030B39DED100B02B0BDEC0E8B02B0BDE8A1
:103C5000704000F0B0BC9DED100B53EC1D2B51ECEF
:103C6000100BFCF7BBFB9DED100B41EC180B53EC5C
:103C70001E2B51EC100BFCF7B1FB53EC182BFCF78F
:103C800006FB41EC100B02B0BDEC0E8B02B070BD18
:103C9000012000F0D5FC02B0BDEC0E8B02B0BDE8F7
:103CA000704000F09DBCA1489FEDA18B844256DA84
:103CB0009DED100BB4F1795F0ADA51EC100BFFF7B0
:103CC0008BFF042808BF00F09BFC9DED100BDAE78A
:103CD00053EC102B51EC100BFCF780FB41EC190B53
:103CE00095480621B0EE490AF0EE690A784400F0E2
:103CF000E6FB53EC192B51EC100BFCF76FFB41EC7E
:103D00001A0B8E48B0EE490AF0EE690A0421784495
:103D100000F0D5FB53EC192B51EC100BFCF75EFBBC
:103D200053EC182BFCF7B3FA41EC100B51EC1A0BC7
:103D300053EC102BFCF7C4FBCDE900019DED000B0B
:103D400053EC102B9DED100B51EC100BFCF746FBC8
:103D50009DED101B53EC112BFCF799FAD2E09DED71
:103D6000100B51EC100B00F0C4FC53EC182BFCF7BB
:103D700032FB9FED730BCDE9000153EC102B9DED51
:103D8000000B51EC100BFCF729FB41EC190B6E48B2
:103D90000621B0EE490AF0EE690A784400F08FFB84
:103DA00053EC192B51EC100BFCF718FB41EC1B0BDF
:103DB0006648B0EE490AF0EE690A0421784400F042
:103DC0007EFB53EC192B51EC100BFCF707FB53EC6B
:103DD000182BFCF75CFA41EC1C0B51EC190B01F0B1
:103DE0007DFC41EC180B5A489FED5BABA04222DCF6
:103DF00053EC1C2B51EC1B0BFCF762FBCDE90001D3
:103E00009DED000B51EC180B53EC102BFCF7E6FA70
:103E100053EC182BFCF73BFA53EC1A2BFCF7DEFAA9
:103E200053EC1D2BFCF7D4FA53EC1E2BFCF7D3FA02
:103E300041EC100B5FE08DED008B002000909DEDBC
:103E4000000B51EC180B53EC102BFCF720FA9DEDF6
:103E5000000B41EC1E0B53EC102B51EC100BFCF73C
:103E6000BDFA53EC192BFCF7B6FA53EC1E2BFCF7FA
:103E700027FB41EC190B53EC1C2B51EC1B0BFCF7F3
:103E80001FFB41EC1B0B53EC1A2B51EC190BFCF7ED
:103E9000A5FA53EC1D2BFCF79EFA41EC190B53ECE1
:103EA0001A2B51EC180BFCF799FA53EC1B2BFCF76F
:103EB00095FA53EC192BFCF78BFA9DED000B41ECB6
:103EC000180B53EC1A2B51EC100BFCF787FA9FEDF3
:103ED000249B53EC192BFCF77EFA41EC100B51ECB0
:103EE000180B53EC102BFCF773FA53EC192BFCF75F
:103EF00072FA41EC100B002D3FF7C5AE51EC100BE0
:103F000081F0004141EC100BBDE600000000000014
:103F10000000F03F00000000075C143326A6913C2F
:103F2000182D4454FB21F93F0000F07F0000E03FD2
:103F3000000000000000F03F381B0000461B00009E
:103F4000000000000000E03F8A1A0000981A0000FC
:103F50003333EF3F0000000000000000000000408D
:103F6000182D4454FB21E93F70B59B482DED020B01
:103F70002DED068B079D25F00044A04218DC9748E4
:103F8000844202DC0AD1069840B19DED060BBDECDF
:103F9000068B02B0BDE8704000F00DBB002DCCBF19
:103FA0009FED8F0B9FED900BBDEC068B02B070BDAB
:103FB0008F48A04215DD8F48A042D8BF4FF0FF3494
:103FC00058DD9DED060B51EC100BFFF705FE0428A4
:103FD00008BF00F015FB9DED060BBDEC068B02B093
:103FE00070BD9DED060B51EC100B00F082FBCDE98E
:103FF000060181489FED828BA0423CDD8248A042B1
:104000001FDD00249FED82AB9DED060B53EC1A2BB8
:1040100051EC100BFCF73BF99DED060B41EC190B35
:1040200053EC1A2B51EC100BFCF7D8F953EC182B6E
:10403000FCF7CEF953EC192BFCF742FACDE9060157
:1040400049E09DED060B012453EC182B51EC100BAD
:10405000FCF71DF99DED060B41EC190B53EC182BE9
:1040600051EC100BFCF7B4F953EC192BFCF728FAC0
:10407000CDE906012FE06848A0421FDD02249FED34
:10408000689B9DED060B53EC192B51EC100BFCF7C4
:10409000A5F953EC182BFCF7FAF89DED060B41EC53
:1040A000180B53EC192B51EC100BFCF791F953EC56
:1040B000182BFCF705FACDE906010CE09DED060B87
:1040C000032453EC102B9FED580B51EC100BFCF715
:1040D000F7F9CDE906019DED060B53EC102B51ECE1
:1040E000100BFCF77BF941EC180B53EC182BFCF789
:1040F00075F941EC190B4E480621B0EE490AF0EE75
:10410000690A784400F0DBF953EC182B51EC100BE2
:10411000FCF764F941EC180B4648B0EE490AF0EEA2
:10412000690A0521784400F0CAF953EC192B51ECC7
:10413000100BFCF753F941EC100B51EC180B53EC3E
:10414000102B002C0EDAFCF7A2F89DED061B53ECA9
:10415000112BFCF743F99DED061B53EC112BFCF7DB
:104160003AF935E0FCF793F89DED061B53EC112B63
:10417000FCF734F941EC100B2F48784400EBC400F5
:1041800090ED001B51EC100B53EC112BFCF720F9B8
:104190009DED061B53EC112BFCF71AF941EC100BAB
:1041A0002648784400EBC40090ED001B51EC100B46
:1041B00053EC112BFCF70FF941EC100B002DA2BFB3
:1041C000BDEC068B02B070BD51EC100B81F00041CC
:1041D00041EC100B01E70000000010440000F07FEC
:1041E000182D4454FB21F93F182D4454FB21F9BFED
:1041F0000000DC3F0000203E0000F33F0000000014
:10420000000000000000F03F0000E63F000000005A
:10421000000000000000004000800340000000009B
:10422000000000000000F83F000000000000F0BFA8
:10423000DA170000901700001A170000D2160000CD
:1042400070B56B4E2DED040B2DED028B82B0DDF8B9
:104250001CC0DDE905235C422CF000411C4341EA0F
:10426000D474049D22F00040B44205D86C422C4323
:1042700040EAD474B4420BD99DED061B9DED040BAE
:1042800002B0BDEC028B04B0BDE8704000F09DB9F7
:10429000ACF14054A4F17F641C430BD0022404EA27
:1042A000AC7444EAD27405439FED538B9FED542BBD
:1042B00007D015E09DED040B51EC100B00F0C6F992
:1042C00042E0002C11BF012C9DED040B02B0BDECAF
:1042D000028B04BF04B070BD022C38D0032C3BD03D
:1042E0000B439FED491B9FED4A0B0AD0B14218D1F9
:1042F000B04209D121F0804120F080400791059023
:104300000FE0002A15DA10E0434B7B44002C08BF75
:1043100093ED000B0DD0012C10D0022C17D0032CE4
:104320001AD0B0421DD1002A03DAB0EE410AF0EEF5
:10433000610A02B0BDEC028B04B070BD93ED000BBE
:1043400051EC100B81F0004141EC100BF1E7B0EEA5
:10435000480AF0EE680AECE7B0EE420AF0EE620AB4
:10436000E7E7401A00153C28C8BF8DED000B19DCAB
:10437000BCF1000FBEBF10F13C0F9FED290B8DED7E
:10438000000B0FDB9DED060B53EC102B9DED040B8A
:1043900051EC100BFCF794F800F0ABF900F056F973
:1043A000CDE90001002C08BF9DED000BC1D0012C10
:1043B00010D0022C9FED1C0B53EC102B9DED000B2D
:1043C00051EC100B0DD0FCF703F853EC182BFBF756
:1043D000FFFFB9E7019880F0004001909DED000BD0
:1043E000A7E7FBF7F5FF53EC182BFBF7F4FFABE760
:1043F0000000F07F00000000182D4454FB2109400C
:10440000182D4454FB2109C0182D4454FB21F9BF39
:10441000182D4454FB21F93F021600000000000053
:104420000000000000000000075C143326A6A13C39
:104430002DED020B019820F0004001909DED000B46
:1044400002B0704700B52DED048BB0EE409AF0EE4F
:10445000609A83B051EC190BFCF7BFF941EC180BD3
:1044600018EE100A18EE901A8DED008B002818BF78
:104470000120084320F00040C0F17F6000F1E040DF
:10448000C00F14D019EE101A19EE900A8DED009B92
:10449000002918BF0121084320F00040C0F17F60CF
:1044A00000F1E040C00F04BF012000F0C9F8B0EEF9
:1044B000480A03B0F0EE680ABDEC048B00BD70B58D
:1044C00004462DED028B4D1E00EBC500B0EE408A78
:1044D000F0EE608A90ED000B35F0060017D053EC3B
:1044E000182B51EC100BFBF779FF41EC100B6D1EF4
:1044F00004EBC50090ED001B51EC100B53EC112B9D
:10450000FBF7C5FE41EC100B35F00600E7D1022D9C
:1045100036D0042D1CD0062D1CBFBDEC028B70BD07
:1045200053EC182B51EC100BFBF758FF94ED0A1BC2
:1045300053EC112BFBF7ABFE53EC182BFBF74EFFA4
:1045400094ED081B53EC112BFBF7A1FE41EC100B73
:1045500053EC182B51EC100BFBF740FF94ED061BAE
:1045600053EC112BFBF793FE53EC182BFBF736FFA4
:1045700094ED040B53EC102BFBF789FE41EC100B70
:1045800053EC182B51EC100BFBF728FF94ED021B9A
:1045900053EC112BFBF77BFE53EC182BFBF71EFFA4
:1045A00094ED001B53EC112BFBF771FEBDEC028B5D
:1045B00041EC100B70BD10B553EC102B51EC100BEF
:1045C000FBF765FE41EC100B10BD10B553EC112B41
:1045D00051EC100BFBF75BFE41EC100B10BD000023
:1045E0009FED050B10B553EC102B51EC100BFBF7A6
:1045F00067FF41EC100B10BD000000000000000040
:104600009FED050B10B553EC102B51EC100BFBF785
:10461000E5FE41EC100B10BD000000000000001092
:1046200002E008C8121F08C1002AFAD1704770477B
:10463000002001E001C1121F002AFBD170470000D9
:1046400001490860704700001C02002010B541ECD1
:10465000100BFFF789FC51EC100B10BD028843884A
:104660009A4204D1FF2008704FF0FF307047031DBD
:10467000D25C0A700288521C92B20280B2F5FA7FB4
:1046800001D3002202800878704710B54388021DCC
:10469000995441884FF4FA73491C89B20022418031
:1046A000994200D34280448801888C4205D1491C3C
:1046B00089B20180994200D3028010BDF0B5154641
:1046C0000E460746002406E031193846FFF7C6FFBC
:1046D000401C02D0641CAC42F6DB701910F8010CCF
:1046E000F0BD41880088081A01D500F5FA7080B243
:1046F000704782B0CDE9000121F0004001909DEDAE
:10470000000B02B051EC100B70470000304810B5A0
:10471000B0F91210494200EE101A00F12201A1F185
:104720006403F8EEC00A9FED2B0A80EE801A81ED3B
:10473000061AB0F91020524200EE902AF8EEE00A74
:1047400080EE801A81ED051AB0F90E00404200EEAD
:10475000900A2148F8EEE00A80EE801A81ED041AF2
:104760008278C27093ED0C0ABCEEC00A10EE103ACB
:10477000DBB29A1A8370B2F5A57F02DB8269521E02
:1047800004E012F5A57F02DC8269521C82614FF0C1
:104790008042536A114CA34218D9536AC469D1EDBF
:1047A000060A1B1B00EE103AB8EE400A20EE201A53
:1047B0009FED0B0AC1EE000A80EE801A90ED160AFA
:1047C00031EE000A80ED160A516AC16110BD000089
:1047D00066050020333303426001002040420F0091
:1047E00000007A441CB50023040A00938DF80040B1
:1047F0008DF80100080A8DF802008DF803100821D9
:1048000068460193FCF796F81CBD000010B5FF4CFC
:10481000FF482DED108B94ED020AD4ED020A20EE34
:1048200020FA94ED020AD4ED030A20EE20CA94ED9A
:10483000020AD4ED040A60EE20BA94ED020AD4ED27
:10484000050A60EE20CA94ED030AD4ED030A20EEB7
:1048500020DA94ED030AD4ED040A20EE209A94EDB8
:10486000030AD4ED050A20EE20BA94ED040AD4ED33
:10487000040A60EE20AA94ED040AD4ED050A20EEA5
:1048800020AA94ED050AD4ED050A60EE209A90ED79
:10489000040A84ED0B0A90ED050A84ED0C0A90EDF4
:1048A000060A84ED0D0AB0F9001000EE101AB8EEF9
:1048B000C00A84ED0E0AB0F9021000EE101AB8EE2C
:1048C000C00A84ED0F0AB0F9041000EE101AB8EE19
:1048D000C00A84ED100AB0F9061000EE101AB8EE06
:1048E000C00A84ED110AB0F9081000EE101AB8EEF3
:1048F000C00A84ED120AB0F90A0000EE100AB8EE00
:10490000C00A84ED130AFDF711F86065606D216D32
:10491000401A00EE100AB8EE400ADFEDBE0A606DE4
:10492000C0EE208A206594ED0E0AD4ED0E0A94EDB7
:104930000F1A20EE200AD4ED0F0A00EE810AD4ED02
:10494000100A94ED101A00EE810A00F05FFBD4ED1E
:104950000E0A60EE800AC4ED0E0AD4ED0F0A60EE76
:10496000800AC4ED0F0AD4ED100A20EE800A84ED0F
:10497000100A94ED110AD4ED110A94ED121A20EEEA
:10498000200AD4ED120A00EE810AD4ED130A94ED48
:10499000131A00EE810A00F039FBD4ED110AB6EECD
:1049A000001AB0EE008A60EE800A39EE6CEA7BEE07
:1049B0002B1AC4ED110AD4ED120A60EE800AC4ED80
:1049C000120AD4ED130A20EE800A71EE6A0A31EE63
:1049D0004D1A84ED130A94ED110A70EEE9EA31EEF6
:1049E000692A20EE080A71EE6ADA60EE2E0A94ED6A
:1049F000120A20EE080A40EE0E0A94ED130A20EE89
:104A0000080A40EE210A94ED110A79EE2C1A7BEE89
:104A10006BCA20EE080A60EEA00A20EE210AD4ED4F
:104A2000121A61EE881A01EE820AD4ED131A3AEED8
:104A30004C2A61EE881A01EE820AD4ED111A3AEE80
:104A40000C2A61EE881A40EE000A21EEAC9AD4EDF1
:104A5000121A10EE900A61EE881A01EE829AD4EDD5
:104A6000131A61EE881A01EEAD9AFBF7A9FD41EC2D
:104A7000100BFFF7E7FC51EC100BFBF7CDFD00EE40
:104A8000900A7CEE0A2A3FEE4D1A60EE880A69EE23
:104A9000083A22EE880A31EE6A1A60EE8E1A94ED18
:104AA000134A2CEE882A31EE293A43EEA21A7BEE05
:104AB0008B2A20EEAE1A60EEA22AD4ED0F0A03EE86
:104AC000AC1A43EEAD2A60EE830AD4ED103A43EE01
:104AD000C00AD4ED123A63EEA23A44EE613A94ED84
:104AE0000E4A70EEA30AD4ED103A63EE823AF5EE68
:104AF000C00A44EE433A94ED133A94ED114A23EE82
:104B0000013A04EE623A73EE832A94ED0E3A23EEF4
:104B1000000A94ED0F3A03EE420A94ED112A62EE78
:104B2000211A94ED122A42EE411A30EE210AF1EEDA
:104B300010FA41D0F5EEC02AF1EE10FA3CD0B5EEF5
:104B4000C00AF1EE10FA37D0D4ED081A9FED321AF0
:104B500020EE812A42EE281A22EE812AC4ED081A9C
:104B6000D4ED091A42EE281AC4ED091A60EE011AB2
:104B700094ED0A1A01EEA81A84ED0A1A94ED0B1AA4
:104B800000EE881AD4ED080A71EE200AC4ED0B0A73
:104B9000D4ED0C0A94ED091A42EE880A70EE810AEF
:104BA000C4ED0C0AD4ED0D0A40EE080A94ED0A0A91
:104BB00030EE800A84ED0D0A94ED030AD4ED0B0A61
:104BC00094ED0C1A94ED023A20EEC00AD4ED040ADA
:104BD00000EEC10AD4ED050A94ED0D1A00EEC10AEB
:104BE000D4ED0B0A94ED0D1A00EE283A94ED020A6A
:104BF00020EE200AD4ED040A00EE810AD4ED050A65
:104C000094ED0C1A00EEC10A08E0000060010020DB
:104C1000240500200000FA440AD7233CD4ED031AEF
:104C2000D4ED0C0A94ED0D1A40EE281A94ED020A08
:104C300094ED042AD4ED052A20EE200AD4ED030ACF
:104C400000EEC10AD4ED050A94ED0B1A00EE810ABC
:104C5000D4ED0D0A94ED0C1A00EE282A94ED020A08
:104C600020EE200AD4ED030A00EE810AD4ED040AF6
:104C700094ED0B1A00EEC10A40EE282A23EE030A37
:104C800001EEA10A02EE020A02EEA20A00F0BEF94B
:104C900063EE000AC4ED020A61EE800AC4ED030A65
:104CA00062EE000A22EE800AC4ED040A84ED050AD1
:104CB000BDEC108B10BD000070B5564C2DED068B71
:104CC000F8EE008AB0EE008AB7EE00AA94ED040A6E
:104CD000D4ED040A94ED051A20EE280A20EE200AED
:104CE000D4ED050A60EE880A00EEC10A30EE0A0A29
:104CF00010EE100AFBF764FC94ED030AD4ED040AED
:104D000094ED051A20EE080A41EC190B20EE200A5A
:104D1000D4ED020A60EE880A00EE810A10EE100A55
:104D2000FBF74EFC41EC100BB0EE491AF0EE691A9D
:104D3000FFF786FA9FED389B51EC100B53EC192BC3
:104D4000FBF74CFBFBF768FC354D286394ED030A39
:104D5000D4ED050A94ED041A20EE280A20EE200A6C
:104D6000D4ED020A60EE880A00EE810A10EE100A05
:104D7000FBF726FC41EC100BFEF746FF53EC192B1A
:104D800051EC100BFBF72AFBFBF746FCE86294EDB5
:104D9000030AD4ED030A94ED041A20EE280A20EE4B
:104DA000200AD4ED040A60EE880A00EEC10A30EE53
:104DB0000A0A10EE100AFBF703FC94ED040AD4ED86
:104DC000050A94ED031A20EE080A41EC190B20EEB7
:104DD000200AD4ED020A60EE880A00EE810A10EE85
:104DE000100AFBF7EDFB41EC100BB0EE491AF0EEA8
:104DF000691AFFF725FA9FED0B1B51EC100B53ECD2
:104E0000112BFBF7EBFAFBF707FCA862BDEC068B56
:104E100070BD0000600100206666666666A64CC034
:104E2000240500206666666666A64C4010B500F054
:104E300065FAFFF7EBFCBDE81040FFF73DBF00004F
:104E400010B559482DED0A8BB0F90610B0F90800DD
:104E50009FED569BDFED57BA574C9FED588A9FED5B
:104E600058BADFED58AA9FED58AADFED588A0029FD
:104E70004EDA9FED57CA00282ADA91FBF0F0FBF7D3
:104E80008EFB41EC100BFFF7D3FA53EC192B51ECCE
:104E9000100BFBF7A9FB0AD8C4ED02BA84ED038A14
:104EA0009FED4C0A84ED040A9FED4B0A0BE09FED49
:104EB0004B0A84ED020A9FED4A0A84ED030A84ED51
:104EC00004BA9FED480A84ED050ABDEC0A8B10BDBB
:104ED000FBDD91FBF0F0FBF762FB41EC100BFFF701
:104EE000A7FA53EC192B51EC100BFBF77DFB84ED6B
:104EF00002CA06D884ED038AC4ED04AA9FED3A0ADB
:104F0000E1E784ED03AAC4ED048A9FED380ADAE7ED
:104F1000DBDD00289FED36CA22DD91FBF0F0FBF7C8
:104F20003EFB41EC100BFFF783FA53EC192B51ECCD
:104F3000100BFBF759FB0AD89FED2E0A84ED020AED
:104F4000C4ED03AA84ED048AC4ED05BABDE79FED64
:104F50002A0A84ED020AC4ED038A84ED04AAB2E7AA
:104F6000B3DA91FBF0F0FBF71AFB41EC100BFFF703
:104F70005FFA53EC192B51EC100BFBF735FB84ED6A
:104F800002CA08D89FED1D0A84ED030A84ED048A45
:104F90009FED1B0A97E79FED1B0A84ED03BA84ED92
:104FA000040A9FED190A8EE7240500200000000086
:104FB0000000F03F0AD7A3BB60010020A8C64BBE8B
:104FC000E17A543F355E7ABF68910DBFE17A54BFF4
:104FD0000AD7A33BBE9F7A3F4ED111BC6F1203BCD0
:104FE0007B140EBF6F1203BBA69B443C99BB16BB40
:104FF0000AD7233B52499D3A99BB163B355E7A3F0F
:105000006F12033C295C0FBFBC74933B10EE100A77
:10501000F6EE000A074960EE200AA1EB600000EE00
:10502000100A20EE801AF7EE080A41EE400A20EE40
:10503000800A7047DF59375F06220146492000F099
:105040009FBA10B530216A2000F0D2FA0A20FCF78E
:105050005DFB0D21242000F0CBFA0A20FCF756FB63
:105060000E21282000F0C4FA0A20FCF74FFB8E2105
:10507000312000F0BDFA0A20FCF748FB01210B208B
:1050800000F07BF80A20FCF741FB002000F059F803
:10509000102801D0012010BD01210B2000F06DF877
:1050A0000A20FCF733FB00210A2000F066F80A20F2
:1050B00000F047F808B1022010BD0A20FCF726FBDB
:1050C00000210B2000F059F80B2000F03AF808B14D
:1050D000032010BD0A20FCF719FB2421412000F019
:1050E0004CF8412000F02DF8242801D0042010BDF8
:1050F0000A20FCF70BFBC021422000F03EF84220C2
:1051000000F01FF8C02801D0052010BD0A20FCF7D0
:10511000FDFA00212A2000F06BFA0A20FCF7F6FACB
:105120000021342000F064FA0A20FCF7EFFA06228E
:1051300003210E2000F062F96420FCF7E7FA00205A
:1051400010BD10B50146322000F052FA0A20FCF7DB
:10515000DDFA8021342000F04BFA0A20FCF7D6FA61
:10516000352000F0E5F904460021342000F040FA33
:105170000A20FCF7CBFA204610BD70B50D46044658
:1051800000212A2000F034FA0220FCF7BFFA214661
:10519000292000F02DFA0220FCF7B8FA29466420F5
:1051A00000F026FA0220FCF7B1FA81212A2000F053
:1051B0001FFABDE870400A20FCF7A8BAFCF7C4FB50
:1051C000FEF766F9FDF7E8FCFDF7C0FCFDF746FDCC
:1051D000FDF772FDFDF7A8FDFDF7D2FDFDF7FAFD25
:1051E000FDF786FC002211461320FCF735FC132046
:1051F000FCF726FC002211461420FCF72DFC14209D
:10520000FCF71EFC002211462520FCF725FC25207A
:10521000FCF716FC002211464720FCF71DFC472036
:10522000FCF70EFC32221649164800F08EFA16489A
:10523000FDF7A6F81548FCF743F800F02DF8FFF746
:10524000FFFD12480068416941F002014161FDF72C
:105250004DFF0F4C0F4D00262088012806D1FFF787
:10526000E5FDFFF753FAFDF7DDFF268028880028CB
:10527000F2D0FEF795F80120FCF748FAECE70000C1
:10528000B804002018030020DC02002020020020C7
:10529000000000200200002030B585B06420FCF73B
:1052A00035FA752000F044F91249002414220871DF
:1052B00011496846FAF7C7FF4FEA0D0505EB4400B0
:1052C000417815F8140000F093F90120FCF71EFA5C
:1052D000641CE4B20A2CF1D3032000F084F902200C
:1052E00000F07CF9FFF7ADFE00F0D0F805B000202B
:1052F00030BD000060010020F057000810B50E22FC
:1053000039493B2000F03CF9374800F10E04018890
:1053100049BA2180418849BA6180818849BAA1800F
:10532000C18849BAA1810189628B49BA891AE18190
:105330004189A28B49BA891A21828089E18B40BABE
:10534000401A60822948FFF777FE2849A4F14200FD
:105350005C399FED271ACA6D8264B1F86010A0F81D
:105360004C10D0F842100160D0F846104160D0F8DF
:105370004A108160B4F90C0000EE100AA4F142005A
:10538000F8EEC00A80EE810AF3EE050A30EE200A3C
:1053900080ED030AB4F90E1000EE101AF8EEC00A00
:1053A0009FED140A80EE801ADFED130AC1EE201A79
:1053B000C0ED041AB4F9101001EE101AF8EEC11A7B
:1053C00081EE801AC1EE201AC0ED051AB4F9121050
:1053D00001EE101AF8EEC11A81EE801A81EE200A51
:1053E00080ED060A10BD000058050020BC01002019
:1053F0005CEFA6436F1283413333654270B50E46AE
:10540000044601461546282000F0F2F80220FCF779
:105410007DF90A21292000F0EBF80220FCF776F94B
:105420000121642000F0E4F80220FCF76FF944F059
:105430008001252000F0DCF80220FCF767F93146F6
:10544000262000F0D5F80220FCF760F90321342073
:1054500000F0CEF80220FCF759F90321672000F094
:10546000C7F80220FCF752F981212A2000F0C0F889
:105470000620FCF74BF945F08001272000F0B8F832
:10548000BDE870400220FCF741B900002DE9F04171
:10549000264E002706F10E044FF496750E2223497E
:1054A0003B2000F06DF83188A08A49BA0844A082F8
:1054B0007188E08A49BA0844E082B188208B49BAF1
:1054C000084420833189608B49BA0844608371891C
:1054D000A08B49BA0844A083B189E08B49BA08443B
:1054E000E0830520FCF712F97F1CAF42D6DBB4F94C
:1054F000140090FBF5F0A082B4F9160090FBF5F0D3
:10550000E082B4F9180090FBF5F02083B4F91A009A
:1055100090FBF5F000B2608390FBF5F0A083B4F946
:105520001E0090FBF5F0E083BDE8F08158050020F7
:10553000F8B5104E0446002240213046FCF7F0F941
:1055400044F080000C4C0125621C20702B46511E3B
:105550000A480095FCF796FD621C0123511E07487E
:105560000095FCF78FFD012240213046FCF7D8F969
:105570006078F8BD0014024060010020480200205D
:10558000F8B5134F15460E46044600224021384612
:10559000FCF7C6F90F4944F08000372408706231E7
:1055A000A1F161020870012362390B480094FCF7F5
:1055B00069FD08492B463246623107480094FCF7E2
:1055C00061FD012240213846FCF7AAF90020F8BD10
:1055D000001402406001002048020020C006010EB5
:1055E0001C2000F005B8C006010E1B20AFF30080A0
:1055F000F8B5114F0E460446002240213846FCF70C
:105600008FF904F07F000D4C0125621C20702B46A1
:10561000511E0B480095FCF735FD2670621C0123D6
:10562000511E07480095FCF72DFD01224021384608
:10563000FCF776F90020F8BD00140240600100205C
:105640004802002070B50A88C2F30A05A5F58065F6
:1056500005804A788B78D20842EA4312C2F30A04E2
:10566000A4F5806444808A78CB78920942EA830268
:105670000B7905F5257542EA8322C2F30A03A3F5E7
:10568000806383800A794E79520842EAC612C2F3D7
:105690000A02A2F58062C2804E79B6090672497983
:1056A000C1F3011141724FF4A5618D4211D804F587
:1056B00025748C420DD802F17801F02909D84FF0F9
:1056C0000044A24205D003F16301C62901D9A342D7
:1056D00003D0002101604160018170BD00B52DED56
:1056E000048B83B041EC190BFBF777F841EC180BF6
:1056F00018EE100A18EE901A8DED008B002818BFD6
:105700000120084320F00040C0F17F6000F1E0403C
:10571000C00F14D019EE101A19EE900A8DED009BEF
:10572000002918BF0121084320F00040C0F17F602C
:1057300000F1E040C00F04BF0120FEF781FF51ECF3
:10574000180B03B0BDEC048B00BD38B504681346DC
:105750000025226862680092E26842F01002E2606E
:10576000044690F83A000A46202810D1002A0ED0AC
:10577000002B0CD0A262A385E5632168606B091D34
:10578000FBF764FF2068416941F04001416138BD89
:1057900018B501680A68D20624D5CA68D20621D590
:1057A00004460868486800900F4884421AD1606B2C
:1057B0000068016821F001010160606B00684068C9
:1057C00080B2202804D1094901F11200FFF73AFF05
:1057D000616B322009684860606B0068016841F0C5
:1057E0000101016018BD000018030020B80400206A
:1057F0006B806B036C001A041B181C101D026A20BE
:105800003801000000061016000610160000000007
:105810000000000001020304060708090000000060
:105820000102030400000000555555555555C53F6C
:105830007D6FEB0312D6D4BF5544880E55C1C93FC6
:105840003B8F68B52882A4BF88B20175E0EF493F5D
:1058500009F7FD0DE13D023F4B2D8A1C273A03C09D
:10586000C88A599CE52A004059018D1B6C06E6BF89
:1058700082922EB1C5B8B33F4FBB610567ACDD3F27
:10588000182D4454FB21E93F9BF681D20B73EF3F67
:10589000182D4454FB21F93FE2652F227F2B7A3CDF
:1058A000075C143326A6813CBDCBF07A8807703C98
:1058B000075C143326A6913CC4EB98999999C9BF0B
:1058C000711623FEC671BCBF6D9A74AFF2B0B3BF40
:1058D0009AFDDE522DDEADBF2F6C6A2C44B4A2BF00
:1058E0000D5555555555D53FFF8300922449C23F6C
:1058F0006E204CC5CD45B73F513DD0A0660DB13FA0
:10590000EB0D76244B7BA93F11DA22E33AAD903FB1
:1059100000000000000000003859000800000020CE
:1059200020020000A0080008905900082002002072
:10593000800F000030460008012627C0400AD7A388
:105940003BD3204124209945137A448C80BB4410DA
:10595000A1133F311B08D5040116D94C0916540C6C
:105960002860EA46540A247054290C0929A8FD0A23
:10597000D7233C5C295429500927FC0356803F0259
:1059800021FF4BE803040120320182105324F4006C
:04000005080001AD41
:00000001FF
